:100000001AC094C033C032C031C046C02FC02EC009
:100010002DC02CC02BC02AC029C028C027C000007A
:100020000000380000000000370002020202020255
:1000300001020408102011241FBECFE5D2E0DEBF6C
:10004000CDBF10E0A0E6B0E0EEE0F6E002C0059023
:100050000D92A436B107D9F720E0A4E6B0E001C0C4
:100060001D92AF37B207E1F76BD0CFC2C9CF2FB720
:10007000F8946091690070916A0080916B00909192
:100080006C002FBF0895B898B998BB98BC98C098D9
:10009000C198C398C49808951F920F920FB60F92FB
:1000A00011242F933F938F939F93AF93BF9380918E
:1000B000690090916A00A0916B00B0916C00309142
:1000C000680026E0230F2D3768F129E8230F0396F7
:1000D000A11DB11D209368008093690090936A0070
:1000E000A0936B00B0936C008091640090916500C8
:1000F000A0916600B09167000196A11DB11D80938B
:10010000640090936500A0936600B0936700BF9170
:10011000AF919F918F913F912F910F900FBE0F90B4
:100120001F9018950296A11DB11DD4CF1F920F925A
:100130000FB60F9211240F900FBE0F901F901895BD
:1001400081B781BF78948AB582608ABD8AB58160A3
:100150008ABD83B7887F826083BF789489B78260C5
:1001600089BF80B7807F80BF80B7806880BF80B73D
:10017000806480BF8CB580648CBD8FEF8DBD80B7EF
:10018000846080BF86B18877836886B9379A17B84C
:1001900087B187B9369A3699FECF84B165B1762F8B
:1001A000682F6115710519F090E080E0CED1E2E38F
:1001B000F0E02491ECE2F0E084918823C1F090E03B
:1001C000880F991FFC01EC5DFF4FC591D491FC0194
:1001D000E25EFF4FA591B4919FB7F8948881E22F1A
:1001E000E0958E2388838C91E823EC939FBF4BDFAF
:1001F00085B78C7F85BF88E0882E912CA12CB12CEF
:100200009FE0492E512C612C712C8BB780648BBFE1
:10021000379885B7877E806185BF85B7806285BF47
:10022000889585B78F7D85BF379A8BB78F7B8BBFBE
:100230001EDF60937B0070937C0080937D00909321
:100240007E0035D12CEA37E140E050E0A0D16B01CF
:100250007C0125ECC20E2FE0D21EE11CF11C809126
:100260007B0090917C00A0917D00B0917E00C80E33
:10027000D91EEA1EFB1EC0927700D0927800E09251
:100280007900F0927A0013D1A501940180D1709386
:10029000760060937500EBDEC0907700D090780018
:1002A000E0907900F0907A00C616D706E806F906C5
:1002B00008F499C0DCDE6093710070937200809343
:1002C000730090937400D3DEC0907B00D0907C00CC
:1002D000E0907D00F0907E006C197D098E099F09E9
:1002E000A301920170D120936D0030936E00409372
:1002F0006F0050937000BBDEAB01BC01E091750054
:10030000F09176008091710090917200A09173003D
:10031000B0917400C0906D00D0906E00E0906F00BE
:10032000F09070008C0D9D1DAE1DBF1D84179507AC
:10033000A607B70708F44AC0E830F105E0F6EE5525
:10034000FE4F099407C010C019C022C026C02FC09C
:1003500033C037C0B898B99887B3886187BBC09855
:10036000C198C498C39AC7CFB898B99887B3886121
:1003700087BBC098C198C398C49ABDCFB898BC98A1
:1003800087B38A6087BBC098C398C498C19AB3CF1B
:10039000B898BC9887B38A60E1CFBB98BC9887B304
:1003A000836087BBC198C398C498C09AA4CFBB98F8
:1003B000BC9887B38360E6CFB998BB9887B3816157
:1003C000D7CFB998BB9887B38161EBCF3196F093C3
:1003D0007600E093750038970CF45DCF10927600AC
:1003E0001092750058CF43DE60937B0070937C00C1
:1003F00080937D0090937E006B017C0120EAC20E09
:100400002FE0D21EE11CF11C32DEC616D706E8062C
:10041000F906D0F738DEF9CE8F929F92AF92BF9255
:10042000CF92DF92EF92FF92CF93DF93EC0168813E
:1004300079818A819B81611571058105910521F47E
:1004400064E279ED8BE597E02DE133EF41E050E098
:100450009ED049015A0127EA31E440E050E07ED0C5
:100460006B017C012CEE34EF4FEF5FEFC501B4015F
:1004700075D0C60ED71EE81EF91EF7FE06C081E035
:10048000C81AD108E10880E8F80AC882D982EA824D
:10049000FB82C701B6019F77DF91CF91FF90EF906C
:1004A000DF90CF90BF90AF909F908F9008958F92E4
:1004B0009F92AF92BF92CF92DF92EF92FF926091A4
:1004C00060007091610080916200909163006115FD
:1004D00071058105910521F464E279ED8BE597E0E2
:1004E0002DE133EF41E050E052D049015A0127EAB3
:1004F00031E440E050E032D06B017C012CEE34EF6F
:100500004FEF5FEFC501B40129D0C60ED71EE81E1C
:10051000F91EF7FE06C081E0C81AD108E10880E89C
:10052000F80AC0926000D0926100E0926200F092FE
:100530006300C701B6019F77FF90EF90DF90CF90E7
:10054000BF90AF909F908F900895609360007093DC
:10055000610080936200909363000895EE27FF2767
:10056000AA27BB2708C0A20FB31FE41FF51F220F45
:10057000331F441F551F969587957795679598F378
:100580007040A9F7009799F7BD01CF010895052E96
:1005900097FB16F400940FD057FD05D014D007FC3C
:1005A00002D046F408C050954095309521953F4FB4
:1005B0004F4F5F4F089590958095709561957F4F4F
:1005C0008F4F9F4F0895A1E21A2EAA1BBB1BFD015E
:1005D0000DC0AA1FBB1FEE1FFF1FA217B307E40722
:1005E000F50720F0A21BB30BE40BF50B661F771F7A
:1005F000881F991F1A9469F760957095809590955A
:0E0600009B01AC01BD01CF010895F894FFCF1E
:04060E0001000000E7
:00000001FF
