:100000001AC028C133C032C031C0DAC02FC02EC0E0
:100010002DC02CC02BC02AC029C028C027C000007A
:100020000000380000000000370002020202020255
:1000300001020408102011241FBECFE5D2E0DEBF6C
:10004000CDBF10E0A0E6B0E0E4E9F6E002C0059024
:100050000D92A436B107D9F720E0A4E6B0E001C0C4
:100060001D92AF37B207E1F7FFD012C3C9CF2FB748
:10007000F8946091690070916A0080916B00909192
:100080006C002FBF0895B898B998BB98BC98C098D9
:10009000C198C398C498089501978730910558F482
:1000A000FC01EC5AFF4F099410C019C022C026C0B1
:1000B0002FC033C037C0B898B99887B3886187BB61
:1000C000C098C198C498C39A0895B898B99887B34E
:1000D000886187BBC098C198C398C49A0895B8989E
:1000E000BC9887B38A6087BBC098C398C498C19AEC
:1000F0000895B898BC9887B38A60E1CFBB98BC9844
:1001000087B3836087BBC198C398C498C09A089589
:10011000BB98BC9887B38360E6CFB998BB9887B388
:100120008161D7CFB998BB9887B38161EBCF82301B
:10013000910599F02CF40097B1F0019741F00895E2
:1001400084309105F9F094F0059741F1089582E02B
:1001500090E0A2DF83E090E09FCF82E090E09CDF20
:1001600083E090E099DF87E090E0F6CF81E090E0D7
:1001700093DF82E090E090DF83E090E08DDF84E029
:1001800090E0EACF81E090E087DF82E090E084DFDA
:1001900083E090E081DF84E090E0E4CF90E080E0D5
:1001A0007BDF81E090E078DF82E090E075DF83E044
:1001B00090E072DF84E090E06FDF85E090E0CCCFEC
:1001C0001F920F920FB60F9211242F933F938F938C
:1001D0009F93AF93BF938091690090916A00A09123
:1001E0006B00B0916C003091680026E0230F2D3732
:1001F00068F129E8230F0396A11DB11D2093680023
:100200008093690090936A00A0936B00B0936C0098
:100210008091640090916500A0916600B0916700A4
:100220000196A11DB11D8093640090936500A09379
:100230006600B0936700BF91AF919F918F913F91FE
:100240002F910F900FBE0F901F9018950296A11D31
:10025000B11DD4CF1F920F920FB60F9211240F90A1
:100260000FBE0F901F90189581B781BF78948AB503
:1002700082608ABD8AB581608ABD83B7887F8260CB
:1002800083BF789489B7826089BF80B7807F80BF41
:1002900080B7806880BF80B7806480BF8CB5806481
:1002A0008CBD8FEF8DBD80B7846080BF86B18877AD
:1002B000836886B9379A17B887B187B9369A36995D
:1002C000FECF84B165B1762F682F6115710519F0E5
:1002D00090E080E07DD1E2E3F0E02491ECE2F0E018
:1002E00084918823C1F090E0880F991FFC01EC5D98
:1002F000FF4FC591D491FC01E25EFF4FA591B491EF
:100300009FB7F8948881E22FE0958E2388838C91A3
:10031000E823EC939FBFB7DE85B78C7F85BF87E06E
:10032000882E912CA12CB12C9FE0492E512C612CB0
:10033000712C8BB780648BBF379885B7877E8061BF
:1003400085BF85B7806285BF889585B78F7D85BF5E
:10035000379A8BB78F7B8BBF8ADE60937B0070935D
:100360007C0080937D0090937E00E4D02CEA37E1FE
:1003700040E050E04FD16B017C0125ECC20E2FE034
:10038000D21EE11CF11C80917B0090917C00A09119
:100390007D00B0917E00C80ED91EEA1EFB1EC092E1
:1003A0007700D0927800E0927900F0927A00C2D083
:1003B000A50194012FD1709376006093750057DEEC
:1003C00000917700109178002091790030917A00A7
:1003D000061717072807390708F442C048DE6B01E3
:1003E0007C01C0927100D0927200E0927300F09292
:1003F00074003DDE00917B0010917C0020917D0017
:1004000030917E00601B710B820B930BA301920154
:100410001DD120936D0030936E0040936F00509378
:100420007000C20ED31EE41EF51E21DE2091750061
:1004300030917600C616D706E806F90618F0C9010D
:1004400076DEF3CFC9010196909376008093750014
:1004500006970CF4B4CF1092760010927500AFCFCF
:1004600006DE60937B0070937C0080937D00909308
:100470007E006B017C0120EAC20E2FE0D21EE11C3F
:10048000F11CF5DDC616D706E806F90630F08091B6
:100490007500909176004BDEF4CFF5DD4ACF8F9258
:1004A0009F92AF92BF92CF92DF92EF92FF92CF9343
:1004B000DF93EC01688179818A819B8161157105E7
:1004C0008105910521F464E279ED8BE597E02DE15A
:1004D00033EF41E050E09ED049015A0127EA31E470
:1004E00040E050E07ED06B017C012CEE34EF4FEF0A
:1004F0005FEFC501B40175D0C60ED71EE81EF91E08
:10050000F7FE06C081E0C81AD108E10880E8F80AC1
:10051000C882D982EA82FB82C701B6019F77DF9148
:10052000CF91FF90EF90DF90CF90BF90AF909F90D2
:100530008F9008958F929F92AF92BF92CF92DF9249
:10054000EF92FF9260916000709161008091620073
:1005500090916300611571058105910521F464E2B4
:1005600079ED8BE597E02DE133EF41E050E052D09B
:1005700049015A0127EA31E440E050E032D06B01F2
:100580007C012CEE34EF4FEF5FEFC501B40129D0B1
:10059000C60ED71EE81EF91EF7FE06C081E0C81A77
:1005A000D108E10880E8F80AC0926000D0926100AA
:1005B000E0926200F0926300C701B6019F77FF905E
:1005C000EF90DF90CF90BF90AF909F908F90089565
:1005D0006093600070936100809362009093630069
:1005E0000895EE27FF27AA27BB2708C0A20FB31F35
:1005F000E41FF51F220F331F441F551F9695879543
:100600007795679598F37040A9F7009799F7BD0122
:10061000CF010895052E97FB16F400940FD057FDD7
:1006200005D014D007FC02D046F408C05095409580
:10063000309521953F4F4F4F5F4F0895909580958E
:10064000709561957F4F8F4F9F4F0895A1E21A2EAD
:10065000AA1BBB1BFD010DC0AA1FBB1FEE1FFF1F66
:10066000A217B307E407F50720F0A21BB30BE40BB6
:10067000F50B661F771F881F991F1A9469F76095FD
:100680007095809590959B01AC01BD01CF010895B7
:04069000F894FFCF0C
:040694000100000061
:00000001FF
